{
  "address": "0x5FbDB2315678afecb367f032d93F642f64180aa3",
  "abi": [
    {
      "inputs": [],
      "stateMutability": "nonpayable",
      "type": "constructor"
    },
    {
      "anonymous": false,
      "inputs": [
        {
          "indexed": true,
          "internalType": "address",
          "name": "owner",
          "type": "address"
        },
        {
          "indexed": true,
          "internalType": "address",
          "name": "approved",
          "type": "address"
        },
        {
          "indexed": true,
          "internalType": "uint256",
          "name": "tokenId",
          "type": "uint256"
        }
      ],
      "name": "Approval",
      "type": "event"
    },
    {
      "anonymous": false,
      "inputs": [
        {
          "indexed": true,
          "internalType": "address",
          "name": "owner",
          "type": "address"
        },
        {
          "indexed": true,
          "internalType": "address",
          "name": "operator",
          "type": "address"
        },
        {
          "indexed": false,
          "internalType": "bool",
          "name": "approved",
          "type": "bool"
        }
      ],
      "name": "ApprovalForAll",
      "type": "event"
    },
    {
      "anonymous": false,
      "inputs": [
        {
          "indexed": true,
          "internalType": "uint256",
          "name": "tokenId",
          "type": "uint256"
        }
      ],
      "name": "NftMinted",
      "type": "event"
    },
    {
      "anonymous": false,
      "inputs": [
        {
          "indexed": true,
          "internalType": "address",
          "name": "from",
          "type": "address"
        },
        {
          "indexed": true,
          "internalType": "address",
          "name": "to",
          "type": "address"
        },
        {
          "indexed": true,
          "internalType": "uint256",
          "name": "tokenId",
          "type": "uint256"
        }
      ],
      "name": "Transfer",
      "type": "event"
    },
    {
      "inputs": [
        {
          "internalType": "address",
          "name": "to",
          "type": "address"
        },
        {
          "internalType": "uint256",
          "name": "tokenId",
          "type": "uint256"
        }
      ],
      "name": "approve",
      "outputs": [],
      "stateMutability": "nonpayable",
      "type": "function"
    },
    {
      "inputs": [
        {
          "internalType": "address",
          "name": "owner",
          "type": "address"
        }
      ],
      "name": "balanceOf",
      "outputs": [
        {
          "internalType": "uint256",
          "name": "",
          "type": "uint256"
        }
      ],
      "stateMutability": "view",
      "type": "function"
    },
    {
      "inputs": [
        {
          "internalType": "uint256",
          "name": "tokenId",
          "type": "uint256"
        }
      ],
      "name": "getApproved",
      "outputs": [
        {
          "internalType": "address",
          "name": "",
          "type": "address"
        }
      ],
      "stateMutability": "view",
      "type": "function"
    },
    {
      "inputs": [],
      "name": "getTokenCounter",
      "outputs": [
        {
          "internalType": "uint256",
          "name": "",
          "type": "uint256"
        }
      ],
      "stateMutability": "view",
      "type": "function"
    },
    {
      "inputs": [
        {
          "internalType": "address",
          "name": "owner",
          "type": "address"
        },
        {
          "internalType": "address",
          "name": "operator",
          "type": "address"
        }
      ],
      "name": "isApprovedForAll",
      "outputs": [
        {
          "internalType": "bool",
          "name": "",
          "type": "bool"
        }
      ],
      "stateMutability": "view",
      "type": "function"
    },
    {
      "inputs": [
        {
          "internalType": "string",
          "name": "tokenURI",
          "type": "string"
        }
      ],
      "name": "mintNft",
      "outputs": [],
      "stateMutability": "nonpayable",
      "type": "function"
    },
    {
      "inputs": [
        {
          "internalType": "uint256",
          "name": "tokenId",
          "type": "uint256"
        },
        {
          "internalType": "string",
          "name": "tokenURI",
          "type": "string"
        }
      ],
      "name": "modifyTokenURI",
      "outputs": [
        {
          "internalType": "bool",
          "name": "",
          "type": "bool"
        }
      ],
      "stateMutability": "nonpayable",
      "type": "function"
    },
    {
      "inputs": [],
      "name": "name",
      "outputs": [
        {
          "internalType": "string",
          "name": "",
          "type": "string"
        }
      ],
      "stateMutability": "view",
      "type": "function"
    },
    {
      "inputs": [
        {
          "internalType": "uint256",
          "name": "tokenId",
          "type": "uint256"
        }
      ],
      "name": "ownerOf",
      "outputs": [
        {
          "internalType": "address",
          "name": "",
          "type": "address"
        }
      ],
      "stateMutability": "view",
      "type": "function"
    },
    {
      "inputs": [
        {
          "internalType": "address",
          "name": "from",
          "type": "address"
        },
        {
          "internalType": "address",
          "name": "to",
          "type": "address"
        },
        {
          "internalType": "uint256",
          "name": "tokenId",
          "type": "uint256"
        }
      ],
      "name": "safeTransferFrom",
      "outputs": [],
      "stateMutability": "nonpayable",
      "type": "function"
    },
    {
      "inputs": [
        {
          "internalType": "address",
          "name": "from",
          "type": "address"
        },
        {
          "internalType": "address",
          "name": "to",
          "type": "address"
        },
        {
          "internalType": "uint256",
          "name": "tokenId",
          "type": "uint256"
        },
        {
          "internalType": "bytes",
          "name": "data",
          "type": "bytes"
        }
      ],
      "name": "safeTransferFrom",
      "outputs": [],
      "stateMutability": "nonpayable",
      "type": "function"
    },
    {
      "inputs": [
        {
          "internalType": "address",
          "name": "operator",
          "type": "address"
        },
        {
          "internalType": "bool",
          "name": "approved",
          "type": "bool"
        }
      ],
      "name": "setApprovalForAll",
      "outputs": [],
      "stateMutability": "nonpayable",
      "type": "function"
    },
    {
      "inputs": [
        {
          "internalType": "bytes4",
          "name": "interfaceId",
          "type": "bytes4"
        }
      ],
      "name": "supportsInterface",
      "outputs": [
        {
          "internalType": "bool",
          "name": "",
          "type": "bool"
        }
      ],
      "stateMutability": "view",
      "type": "function"
    },
    {
      "inputs": [],
      "name": "symbol",
      "outputs": [
        {
          "internalType": "string",
          "name": "",
          "type": "string"
        }
      ],
      "stateMutability": "view",
      "type": "function"
    },
    {
      "inputs": [
        {
          "internalType": "uint256",
          "name": "tokenId",
          "type": "uint256"
        }
      ],
      "name": "tokenURI",
      "outputs": [
        {
          "internalType": "string",
          "name": "",
          "type": "string"
        }
      ],
      "stateMutability": "view",
      "type": "function"
    },
    {
      "inputs": [
        {
          "internalType": "address",
          "name": "from",
          "type": "address"
        },
        {
          "internalType": "address",
          "name": "to",
          "type": "address"
        },
        {
          "internalType": "uint256",
          "name": "tokenId",
          "type": "uint256"
        }
      ],
      "name": "transferFrom",
      "outputs": [],
      "stateMutability": "nonpayable",
      "type": "function"
    }
  ],
  "transactionHash": "0xf0339161dffdb09929fa53ce314b29806108cd8ca74048273b53a3cf8f16772e",
  "args": [],
  "numDeployments": 1,
  "solcInputHash": "bce6ed949f57d396638d3b6580840173",
  "bytecode": "0x60806040523480156200001157600080fd5b506040518060400160405280600a81526020017f50726f66696c654e6674000000000000000000000000000000000000000000008152506040518060400160405280600481526020017f504e465400000000000000000000000000000000000000000000000000000000815250816000908051906020019062000096929190620000c0565b508060019080519060200190620000af929190620000c0565b5050506000600781905550620001d5565b828054620000ce906200019f565b90600052602060002090601f016020900481019282620000f257600085556200013e565b82601f106200010d57805160ff19168380011785556200013e565b828001600101855582156200013e579182015b828111156200013d57825182559160200191906001019062000120565b5b5090506200014d919062000151565b5090565b5b808211156200016c57600081600090555060010162000152565b5090565b7f4e487b7100000000000000000000000000000000000000000000000000000000600052602260045260246000fd5b60006002820490506001821680620001b857607f821691505b60208210811415620001cf57620001ce62000170565b5b50919050565b612b8980620001e56000396000f3fe608060405234801561001057600080fd5b50600436106101005760003560e01c806370a0823111610097578063b88d4fde11610066578063b88d4fde146102bf578063c87b56dd146102db578063da86f4a91461030b578063e985e9c51461032757610100565b806370a082311461022557806395d89b4114610255578063a22cb46514610273578063a2cf7e1b1461028f57610100565b806323b872dd116100d357806323b872dd1461019f57806342842e0e146101bb5780636352211e146101d75780636e02007d1461020757610100565b806301ffc9a71461010557806306fdde0314610135578063081812fc14610153578063095ea7b314610183575b600080fd5b61011f600480360381019061011a9190611b8c565b610357565b60405161012c9190611bd4565b60405180910390f35b61013d610439565b60405161014a9190611c88565b60405180910390f35b61016d60048036038101906101689190611ce0565b6104cb565b60405161017a9190611d4e565b60405180910390f35b61019d60048036038101906101989190611d95565b610511565b005b6101b960048036038101906101b49190611dd5565b610629565b005b6101d560048036038101906101d09190611dd5565b610689565b005b6101f160048036038101906101ec9190611ce0565b6106a9565b6040516101fe9190611d4e565b60405180910390f35b61020f610730565b60405161021c9190611e37565b60405180910390f35b61023f600480360381019061023a9190611e52565b61073a565b60405161024c9190611e37565b60405180910390f35b61025d6107f2565b60405161026a9190611c88565b60405180910390f35b61028d60048036038101906102889190611eab565b610884565b005b6102a960048036038101906102a49190612020565b61089a565b6040516102b69190611bd4565b60405180910390f35b6102d960048036038101906102d4919061211d565b610928565b005b6102f560048036038101906102f09190611ce0565b61098a565b6040516103029190611c88565b60405180910390f35b610325600480360381019061032091906121a0565b610a9d565b005b610341600480360381019061033c91906121e9565b610afc565b60405161034e9190611bd4565b60405180910390f35b60007f80ac58cd000000000000000000000000000000000000000000000000000000007bffffffffffffffffffffffffffffffffffffffffffffffffffffffff1916827bffffffffffffffffffffffffffffffffffffffffffffffffffffffff1916148061042257507f5b5e139f000000000000000000000000000000000000000000000000000000007bffffffffffffffffffffffffffffffffffffffffffffffffffffffff1916827bffffffffffffffffffffffffffffffffffffffffffffffffffffffff1916145b80610432575061043182610b90565b5b9050919050565b60606000805461044890612258565b80601f016020809104026020016040519081016040528092919081815260200182805461047490612258565b80156104c15780601f10610496576101008083540402835291602001916104c1565b820191906000526020600020905b8154815290600101906020018083116104a457829003601f168201915b5050505050905090565b60006104d682610bfa565b6004600083815260200190815260200160002060009054906101000a900473ffffffffffffffffffffffffffffffffffffffff169050919050565b600061051c826106a9565b90508073ffffffffffffffffffffffffffffffffffffffff168373ffffffffffffffffffffffffffffffffffffffff16141561058d576040517f08c379a0000000000000000000000000000000000000000000000000000000008152600401610584906122fc565b60405180910390fd5b8073ffffffffffffffffffffffffffffffffffffffff166105ac610c45565b73ffffffffffffffffffffffffffffffffffffffff1614806105db57506105da816105d5610c45565b610afc565b5b61061a576040517f08c379a00000000000000000000000000000000000000000000000000000000081526004016106119061238e565b60405180910390fd5b6106248383610c4d565b505050565b61063a610634610c45565b82610d06565b610679576040517f08c379a000000000000000000000000000000000000000000000000000000000815260040161067090612420565b60405180910390fd5b610684838383610d9b565b505050565b6106a483838360405180602001604052806000815250610928565b505050565b6000806106b583611095565b9050600073ffffffffffffffffffffffffffffffffffffffff168173ffffffffffffffffffffffffffffffffffffffff161415610727576040517f08c379a000000000000000000000000000000000000000000000000000000000815260040161071e9061248c565b60405180910390fd5b80915050919050565b6000600754905090565b60008073ffffffffffffffffffffffffffffffffffffffff168273ffffffffffffffffffffffffffffffffffffffff1614156107ab576040517f08c379a00000000000000000000000000000000000000000000000000000000081526004016107a29061251e565b60405180910390fd5b600360008373ffffffffffffffffffffffffffffffffffffffff1673ffffffffffffffffffffffffffffffffffffffff168152602001908152602001600020549050919050565b60606001805461080190612258565b80601f016020809104026020016040519081016040528092919081815260200182805461082d90612258565b801561087a5780601f1061084f5761010080835404028352916020019161087a565b820191906000526020600020905b81548152906001019060200180831161085d57829003601f168201915b5050505050905090565b61089661088f610c45565b83836110d2565b5050565b6000826108a6816106a9565b73ffffffffffffffffffffffffffffffffffffffff163373ffffffffffffffffffffffffffffffffffffffff1614610913576040517f08c379a000000000000000000000000000000000000000000000000000000000815260040161090a906125b0565b60405180910390fd5b61091d848461123f565b600191505092915050565b610939610933610c45565b83610d06565b610978576040517f08c379a000000000000000000000000000000000000000000000000000000000815260040161096f90612420565b60405180910390fd5b610984848484846112b3565b50505050565b606061099582610bfa565b60006006600084815260200190815260200160002080546109b590612258565b80601f01602080910402602001604051908101604052809291908181526020018280546109e190612258565b8015610a2e5780601f10610a0357610100808354040283529160200191610a2e565b820191906000526020600020905b815481529060010190602001808311610a1157829003601f168201915b505050505090506000610a3f61130f565b9050600081511415610a55578192505050610a98565b600082511115610a8a578082604051602001610a7292919061260c565b60405160208183030381529060405292505050610a98565b610a938461134c565b925050505b919050565b610aa9336007546113b4565b610ab56007548261123f565b6007547f7f8949b6eca2b14d0feb1af0844a112998e467a4f88b8683301f3a6e409f32ae60405160405180910390a26001600754610af3919061265f565b60078190555050565b6000600560008473ffffffffffffffffffffffffffffffffffffffff1673ffffffffffffffffffffffffffffffffffffffff16815260200190815260200160002060008373ffffffffffffffffffffffffffffffffffffffff1673ffffffffffffffffffffffffffffffffffffffff16815260200190815260200160002060009054906101000a900460ff16905092915050565b60007f01ffc9a7000000000000000000000000000000000000000000000000000000007bffffffffffffffffffffffffffffffffffffffffffffffffffffffff1916827bffffffffffffffffffffffffffffffffffffffffffffffffffffffff1916149050919050565b610c03816113d2565b610c42576040517f08c379a0000000000000000000000000000000000000000000000000000000008152600401610c399061248c565b60405180910390fd5b50565b600033905090565b816004600083815260200190815260200160002060006101000a81548173ffffffffffffffffffffffffffffffffffffffff021916908373ffffffffffffffffffffffffffffffffffffffff160217905550808273ffffffffffffffffffffffffffffffffffffffff16610cc0836106a9565b73ffffffffffffffffffffffffffffffffffffffff167f8c5be1e5ebec7d5bd14f71427d1e84f3dd0314c0f7b2291e5b200ac8c7c3b92560405160405180910390a45050565b600080610d12836106a9565b90508073ffffffffffffffffffffffffffffffffffffffff168473ffffffffffffffffffffffffffffffffffffffff161480610d545750610d538185610afc565b5b80610d9257508373ffffffffffffffffffffffffffffffffffffffff16610d7a846104cb565b73ffffffffffffffffffffffffffffffffffffffff16145b91505092915050565b8273ffffffffffffffffffffffffffffffffffffffff16610dbb826106a9565b73ffffffffffffffffffffffffffffffffffffffff1614610e11576040517f08c379a0000000000000000000000000000000000000000000000000000000008152600401610e0890612727565b60405180910390fd5b600073ffffffffffffffffffffffffffffffffffffffff168273ffffffffffffffffffffffffffffffffffffffff161415610e81576040517f08c379a0000000000000000000000000000000000000000000000000000000008152600401610e78906127b9565b60405180910390fd5b610e8e8383836001611413565b8273ffffffffffffffffffffffffffffffffffffffff16610eae826106a9565b73ffffffffffffffffffffffffffffffffffffffff1614610f04576040517f08c379a0000000000000000000000000000000000000000000000000000000008152600401610efb90612727565b60405180910390fd5b6004600082815260200190815260200160002060006101000a81549073ffffffffffffffffffffffffffffffffffffffff02191690556001600360008573ffffffffffffffffffffffffffffffffffffffff1673ffffffffffffffffffffffffffffffffffffffff168152602001908152602001600020600082825403925050819055506001600360008473ffffffffffffffffffffffffffffffffffffffff1673ffffffffffffffffffffffffffffffffffffffff16815260200190815260200160002060008282540192505081905550816002600083815260200190815260200160002060006101000a81548173ffffffffffffffffffffffffffffffffffffffff021916908373ffffffffffffffffffffffffffffffffffffffff160217905550808273ffffffffffffffffffffffffffffffffffffffff168473ffffffffffffffffffffffffffffffffffffffff167fddf252ad1be2c89b69c2b068fc378daa952ba7f163c4a11628f55a4df523b3ef60405160405180910390a46110908383836001611419565b505050565b60006002600083815260200190815260200160002060009054906101000a900473ffffffffffffffffffffffffffffffffffffffff169050919050565b8173ffffffffffffffffffffffffffffffffffffffff168373ffffffffffffffffffffffffffffffffffffffff161415611141576040517f08c379a000000000000000000000000000000000000000000000000000000000815260040161113890612825565b60405180910390fd5b80600560008573ffffffffffffffffffffffffffffffffffffffff1673ffffffffffffffffffffffffffffffffffffffff16815260200190815260200160002060008473ffffffffffffffffffffffffffffffffffffffff1673ffffffffffffffffffffffffffffffffffffffff16815260200190815260200160002060006101000a81548160ff0219169083151502179055508173ffffffffffffffffffffffffffffffffffffffff168373ffffffffffffffffffffffffffffffffffffffff167f17307eab39ab6107e8899845ad3d59bd9653f200f220920489ca2b5937696c31836040516112329190611bd4565b60405180910390a3505050565b611248826113d2565b611287576040517f08c379a000000000000000000000000000000000000000000000000000000000815260040161127e906128b7565b60405180910390fd5b806006600084815260200190815260200160002090805190602001906112ae929190611a7d565b505050565b6112be848484610d9b565b6112ca8484848461141f565b611309576040517f08c379a000000000000000000000000000000000000000000000000000000000815260040161130090612949565b60405180910390fd5b50505050565b60606040518060400160405280601d81526020017f646174613a6170706c69636174696f6e2f6a736f6e3b6261736536342c000000815250905090565b606061135782610bfa565b600061136161130f565b9050600081511161138157604051806020016040528060008152506113ac565b8061138b846115b6565b60405160200161139c92919061260c565b6040516020818303038152906040525b915050919050565b6113ce82826040518060200160405280600081525061168e565b5050565b60008073ffffffffffffffffffffffffffffffffffffffff166113f483611095565b73ffffffffffffffffffffffffffffffffffffffff1614159050919050565b50505050565b50505050565b60006114408473ffffffffffffffffffffffffffffffffffffffff166116e9565b156115a9578373ffffffffffffffffffffffffffffffffffffffff1663150b7a02611469610c45565b8786866040518563ffffffff1660e01b815260040161148b94939291906129be565b602060405180830381600087803b1580156114a557600080fd5b505af19250505080156114d657506040513d601f19601f820116820180604052508101906114d39190612a1f565b60015b611559573d8060008114611506576040519150601f19603f3d011682016040523d82523d6000602084013e61150b565b606091505b50600081511415611551576040517f08c379a000000000000000000000000000000000000000000000000000000000815260040161154890612949565b60405180910390fd5b805181602001fd5b63150b7a0260e01b7bffffffffffffffffffffffffffffffffffffffffffffffffffffffff1916817bffffffffffffffffffffffffffffffffffffffffffffffffffffffff1916149150506115ae565b600190505b949350505050565b6060600060016115c58461170c565b01905060008167ffffffffffffffff8111156115e4576115e3611ef5565b5b6040519080825280601f01601f1916602001820160405280156116165781602001600182028036833780820191505090505b509050600082602001820190505b600115611683578080600190039150507f3031323334353637383961626364656600000000000000000000000000000000600a86061a8153600a858161166d5761166c612a4c565b5b049450600085141561167e57611683565b611624565b819350505050919050565b611698838361185f565b6116a5600084848461141f565b6116e4576040517f08c379a00000000000000000000000000000000000000000000000000000000081526004016116db90612949565b60405180910390fd5b505050565b6000808273ffffffffffffffffffffffffffffffffffffffff163b119050919050565b600080600090507a184f03e93ff9f4daa797ed6e38ed64bf6a1f010000000000000000831061176a577a184f03e93ff9f4daa797ed6e38ed64bf6a1f01000000000000000083816117605761175f612a4c565b5b0492506040810190505b6d04ee2d6d415b85acef810000000083106117a7576d04ee2d6d415b85acef8100000000838161179d5761179c612a4c565b5b0492506020810190505b662386f26fc1000083106117d657662386f26fc1000083816117cc576117cb612a4c565b5b0492506010810190505b6305f5e10083106117ff576305f5e10083816117f5576117f4612a4c565b5b0492506008810190505b612710831061182457612710838161181a57611819612a4c565b5b0492506004810190505b60648310611847576064838161183d5761183c612a4c565b5b0492506002810190505b600a8310611856576001810190505b80915050919050565b600073ffffffffffffffffffffffffffffffffffffffff168273ffffffffffffffffffffffffffffffffffffffff1614156118cf576040517f08c379a00000000000000000000000000000000000000000000000000000000081526004016118c690612ac7565b60405180910390fd5b6118d8816113d2565b15611918576040517f08c379a000000000000000000000000000000000000000000000000000000000815260040161190f90612b33565b60405180910390fd5b611926600083836001611413565b61192f816113d2565b1561196f576040517f08c379a000000000000000000000000000000000000000000000000000000000815260040161196690612b33565b60405180910390fd5b6001600360008473ffffffffffffffffffffffffffffffffffffffff1673ffffffffffffffffffffffffffffffffffffffff16815260200190815260200160002060008282540192505081905550816002600083815260200190815260200160002060006101000a81548173ffffffffffffffffffffffffffffffffffffffff021916908373ffffffffffffffffffffffffffffffffffffffff160217905550808273ffffffffffffffffffffffffffffffffffffffff16600073ffffffffffffffffffffffffffffffffffffffff167fddf252ad1be2c89b69c2b068fc378daa952ba7f163c4a11628f55a4df523b3ef60405160405180910390a4611a79600083836001611419565b5050565b828054611a8990612258565b90600052602060002090601f016020900481019282611aab5760008555611af2565b82601f10611ac457805160ff1916838001178555611af2565b82800160010185558215611af2579182015b82811115611af1578251825591602001919060010190611ad6565b5b509050611aff9190611b03565b5090565b5b80821115611b1c576000816000905550600101611b04565b5090565b6000604051905090565b600080fd5b600080fd5b60007fffffffff0000000000000000000000000000000000000000000000000000000082169050919050565b611b6981611b34565b8114611b7457600080fd5b50565b600081359050611b8681611b60565b92915050565b600060208284031215611ba257611ba1611b2a565b5b6000611bb084828501611b77565b91505092915050565b60008115159050919050565b611bce81611bb9565b82525050565b6000602082019050611be96000830184611bc5565b92915050565b600081519050919050565b600082825260208201905092915050565b60005b83811015611c29578082015181840152602081019050611c0e565b83811115611c38576000848401525b50505050565b6000601f19601f8301169050919050565b6000611c5a82611bef565b611c648185611bfa565b9350611c74818560208601611c0b565b611c7d81611c3e565b840191505092915050565b60006020820190508181036000830152611ca28184611c4f565b905092915050565b6000819050919050565b611cbd81611caa565b8114611cc857600080fd5b50565b600081359050611cda81611cb4565b92915050565b600060208284031215611cf657611cf5611b2a565b5b6000611d0484828501611ccb565b91505092915050565b600073ffffffffffffffffffffffffffffffffffffffff82169050919050565b6000611d3882611d0d565b9050919050565b611d4881611d2d565b82525050565b6000602082019050611d636000830184611d3f565b92915050565b611d7281611d2d565b8114611d7d57600080fd5b50565b600081359050611d8f81611d69565b92915050565b60008060408385031215611dac57611dab611b2a565b5b6000611dba85828601611d80565b9250506020611dcb85828601611ccb565b9150509250929050565b600080600060608486031215611dee57611ded611b2a565b5b6000611dfc86828701611d80565b9350506020611e0d86828701611d80565b9250506040611e1e86828701611ccb565b9150509250925092565b611e3181611caa565b82525050565b6000602082019050611e4c6000830184611e28565b92915050565b600060208284031215611e6857611e67611b2a565b5b6000611e7684828501611d80565b91505092915050565b611e8881611bb9565b8114611e9357600080fd5b50565b600081359050611ea581611e7f565b92915050565b60008060408385031215611ec257611ec1611b2a565b5b6000611ed085828601611d80565b9250506020611ee185828601611e96565b9150509250929050565b600080fd5b600080fd5b7f4e487b7100000000000000000000000000000000000000000000000000000000600052604160045260246000fd5b611f2d82611c3e565b810181811067ffffffffffffffff82111715611f4c57611f4b611ef5565b5b80604052505050565b6000611f5f611b20565b9050611f6b8282611f24565b919050565b600067ffffffffffffffff821115611f8b57611f8a611ef5565b5b611f9482611c3e565b9050602081019050919050565b82818337600083830152505050565b6000611fc3611fbe84611f70565b611f55565b905082815260208101848484011115611fdf57611fde611ef0565b5b611fea848285611fa1565b509392505050565b600082601f83011261200757612006611eeb565b5b8135612017848260208601611fb0565b91505092915050565b6000806040838503121561203757612036611b2a565b5b600061204585828601611ccb565b925050602083013567ffffffffffffffff81111561206657612065611b2f565b5b61207285828601611ff2565b9150509250929050565b600067ffffffffffffffff82111561209757612096611ef5565b5b6120a082611c3e565b9050602081019050919050565b60006120c06120bb8461207c565b611f55565b9050828152602081018484840111156120dc576120db611ef0565b5b6120e7848285611fa1565b509392505050565b600082601f83011261210457612103611eeb565b5b81356121148482602086016120ad565b91505092915050565b6000806000806080858703121561213757612136611b2a565b5b600061214587828801611d80565b945050602061215687828801611d80565b935050604061216787828801611ccb565b925050606085013567ffffffffffffffff81111561218857612187611b2f565b5b612194878288016120ef565b91505092959194509250565b6000602082840312156121b6576121b5611b2a565b5b600082013567ffffffffffffffff8111156121d4576121d3611b2f565b5b6121e084828501611ff2565b91505092915050565b60008060408385031215612200576121ff611b2a565b5b600061220e85828601611d80565b925050602061221f85828601611d80565b9150509250929050565b7f4e487b7100000000000000000000000000000000000000000000000000000000600052602260045260246000fd5b6000600282049050600182168061227057607f821691505b6020821081141561228457612283612229565b5b50919050565b7f4552433732313a20617070726f76616c20746f2063757272656e74206f776e6560008201527f7200000000000000000000000000000000000000000000000000000000000000602082015250565b60006122e6602183611bfa565b91506122f18261228a565b604082019050919050565b60006020820190508181036000830152612315816122d9565b9050919050565b7f4552433732313a20617070726f76652063616c6c6572206973206e6f7420746f60008201527f6b656e206f776e6572206f7220617070726f76656420666f7220616c6c000000602082015250565b6000612378603d83611bfa565b91506123838261231c565b604082019050919050565b600060208201905081810360008301526123a78161236b565b9050919050565b7f4552433732313a2063616c6c6572206973206e6f7420746f6b656e206f776e6560008201527f72206f7220617070726f76656400000000000000000000000000000000000000602082015250565b600061240a602d83611bfa565b9150612415826123ae565b604082019050919050565b60006020820190508181036000830152612439816123fd565b9050919050565b7f4552433732313a20696e76616c696420746f6b656e2049440000000000000000600082015250565b6000612476601883611bfa565b915061248182612440565b602082019050919050565b600060208201905081810360008301526124a581612469565b9050919050565b7f4552433732313a2061646472657373207a65726f206973206e6f74206120766160008201527f6c6964206f776e65720000000000000000000000000000000000000000000000602082015250565b6000612508602983611bfa565b9150612513826124ac565b604082019050919050565b60006020820190508181036000830152612537816124fb565b9050919050565b7f596f7520617265206e6f7420746865206f776e6572206f662074686973204e4660008201527f5400000000000000000000000000000000000000000000000000000000000000602082015250565b600061259a602183611bfa565b91506125a58261253e565b604082019050919050565b600060208201905081810360008301526125c98161258d565b9050919050565b600081905092915050565b60006125e682611bef565b6125f081856125d0565b9350612600818560208601611c0b565b80840191505092915050565b600061261882856125db565b915061262482846125db565b91508190509392505050565b7f4e487b7100000000000000000000000000000000000000000000000000000000600052601160045260246000fd5b600061266a82611caa565b915061267583611caa565b9250827fffffffffffffffffffffffffffffffffffffffffffffffffffffffffffffffff038211156126aa576126a9612630565b5b828201905092915050565b7f4552433732313a207472616e736665722066726f6d20696e636f72726563742060008201527f6f776e6572000000000000000000000000000000000000000000000000000000602082015250565b6000612711602583611bfa565b915061271c826126b5565b604082019050919050565b6000602082019050818103600083015261274081612704565b9050919050565b7f4552433732313a207472616e7366657220746f20746865207a65726f2061646460008201527f7265737300000000000000000000000000000000000000000000000000000000602082015250565b60006127a3602483611bfa565b91506127ae82612747565b604082019050919050565b600060208201905081810360008301526127d281612796565b9050919050565b7f4552433732313a20617070726f766520746f2063616c6c657200000000000000600082015250565b600061280f601983611bfa565b915061281a826127d9565b602082019050919050565b6000602082019050818103600083015261283e81612802565b9050919050565b7f45524337323155524953746f726167653a2055524920736574206f66206e6f6e60008201527f6578697374656e7420746f6b656e000000000000000000000000000000000000602082015250565b60006128a1602e83611bfa565b91506128ac82612845565b604082019050919050565b600060208201905081810360008301526128d081612894565b9050919050565b7f4552433732313a207472616e7366657220746f206e6f6e20455243373231526560008201527f63656976657220696d706c656d656e7465720000000000000000000000000000602082015250565b6000612933603283611bfa565b915061293e826128d7565b604082019050919050565b6000602082019050818103600083015261296281612926565b9050919050565b600081519050919050565b600082825260208201905092915050565b600061299082612969565b61299a8185612974565b93506129aa818560208601611c0b565b6129b381611c3e565b840191505092915050565b60006080820190506129d36000830187611d3f565b6129e06020830186611d3f565b6129ed6040830185611e28565b81810360608301526129ff8184612985565b905095945050505050565b600081519050612a1981611b60565b92915050565b600060208284031215612a3557612a34611b2a565b5b6000612a4384828501612a0a565b91505092915050565b7f4e487b7100000000000000000000000000000000000000000000000000000000600052601260045260246000fd5b7f4552433732313a206d696e7420746f20746865207a65726f2061646472657373600082015250565b6000612ab1602083611bfa565b9150612abc82612a7b565b602082019050919050565b60006020820190508181036000830152612ae081612aa4565b9050919050565b7f4552433732313a20746f6b656e20616c7265616479206d696e74656400000000600082015250565b6000612b1d601c83611bfa565b9150612b2882612ae7565b602082019050919050565b60006020820190508181036000830152612b4c81612b10565b905091905056fea2646970667358221220818e342171b7559288ed018d12e1d91bdde57a26ac7d2ce088af9be7d8fbfa3764736f6c63430008090033",
  "devdoc": {
    "kind": "dev",
    "methods": {
      "approve(address,uint256)": {
        "details": "See {IERC721-approve}."
      },
      "balanceOf(address)": {
        "details": "See {IERC721-balanceOf}."
      },
      "getApproved(uint256)": {
        "details": "See {IERC721-getApproved}."
      },
      "isApprovedForAll(address,address)": {
        "details": "See {IERC721-isApprovedForAll}."
      },
      "name()": {
        "details": "See {IERC721Metadata-name}."
      },
      "ownerOf(uint256)": {
        "details": "See {IERC721-ownerOf}."
      },
      "safeTransferFrom(address,address,uint256)": {
        "details": "See {IERC721-safeTransferFrom}."
      },
      "safeTransferFrom(address,address,uint256,bytes)": {
        "details": "See {IERC721-safeTransferFrom}."
      },
      "setApprovalForAll(address,bool)": {
        "details": "See {IERC721-setApprovalForAll}."
      },
      "supportsInterface(bytes4)": {
        "details": "See {IERC165-supportsInterface}."
      },
      "symbol()": {
        "details": "See {IERC721Metadata-symbol}."
      },
      "tokenURI(uint256)": {
        "details": "See {IERC721Metadata-tokenURI}."
      },
      "transferFrom(address,address,uint256)": {
        "details": "See {IERC721-transferFrom}."
      }
    },
    "version": 1
  },
  "userdoc": {
    "kind": "user",
    "methods": {},
    "version": 1
  },
  "storageLayout": {
    "storage": [
      {
        "astId": 25,
        "contract": "contracts/ProfileNft.sol:ProfileNft",
        "label": "_name",
        "offset": 0,
        "slot": "0",
        "type": "t_string_storage"
      },
      {
        "astId": 27,
        "contract": "contracts/ProfileNft.sol:ProfileNft",
        "label": "_symbol",
        "offset": 0,
        "slot": "1",
        "type": "t_string_storage"
      },
      {
        "astId": 31,
        "contract": "contracts/ProfileNft.sol:ProfileNft",
        "label": "_owners",
        "offset": 0,
        "slot": "2",
        "type": "t_mapping(t_uint256,t_address)"
      },
      {
        "astId": 35,
        "contract": "contracts/ProfileNft.sol:ProfileNft",
        "label": "_balances",
        "offset": 0,
        "slot": "3",
        "type": "t_mapping(t_address,t_uint256)"
      },
      {
        "astId": 39,
        "contract": "contracts/ProfileNft.sol:ProfileNft",
        "label": "_tokenApprovals",
        "offset": 0,
        "slot": "4",
        "type": "t_mapping(t_uint256,t_address)"
      },
      {
        "astId": 45,
        "contract": "contracts/ProfileNft.sol:ProfileNft",
        "label": "_operatorApprovals",
        "offset": 0,
        "slot": "5",
        "type": "t_mapping(t_address,t_mapping(t_address,t_bool))"
      },
      {
        "astId": 1073,
        "contract": "contracts/ProfileNft.sol:ProfileNft",
        "label": "_tokenURIs",
        "offset": 0,
        "slot": "6",
        "type": "t_mapping(t_uint256,t_string_storage)"
      },
      {
        "astId": 2647,
        "contract": "contracts/ProfileNft.sol:ProfileNft",
        "label": "s_tokenCounter",
        "offset": 0,
        "slot": "7",
        "type": "t_uint256"
      }
    ],
    "types": {
      "t_address": {
        "encoding": "inplace",
        "label": "address",
        "numberOfBytes": "20"
      },
      "t_bool": {
        "encoding": "inplace",
        "label": "bool",
        "numberOfBytes": "1"
      },
      "t_mapping(t_address,t_bool)": {
        "encoding": "mapping",
        "key": "t_address",
        "label": "mapping(address => bool)",
        "numberOfBytes": "32",
        "value": "t_bool"
      },
      "t_mapping(t_address,t_mapping(t_address,t_bool))": {
        "encoding": "mapping",
        "key": "t_address",
        "label": "mapping(address => mapping(address => bool))",
        "numberOfBytes": "32",
        "value": "t_mapping(t_address,t_bool)"
      },
      "t_mapping(t_address,t_uint256)": {
        "encoding": "mapping",
        "key": "t_address",
        "label": "mapping(address => uint256)",
        "numberOfBytes": "32",
        "value": "t_uint256"
      },
      "t_mapping(t_uint256,t_address)": {
        "encoding": "mapping",
        "key": "t_uint256",
        "label": "mapping(uint256 => address)",
        "numberOfBytes": "32",
        "value": "t_address"
      },
      "t_mapping(t_uint256,t_string_storage)": {
        "encoding": "mapping",
        "key": "t_uint256",
        "label": "mapping(uint256 => string)",
        "numberOfBytes": "32",
        "value": "t_string_storage"
      },
      "t_string_storage": {
        "encoding": "bytes",
        "label": "string",
        "numberOfBytes": "32"
      },
      "t_uint256": {
        "encoding": "inplace",
        "label": "uint256",
        "numberOfBytes": "32"
      }
    }
  }
}